{
  "contractName": "Broker",
  "abi": [
    {
      "inputs": [],
      "payable": false,
      "stateMutability": "nonpayable",
      "type": "constructor",
      "signature": "constructor"
    },
    {
      "constant": true,
      "inputs": [
        {
          "name": "_market",
          "type": "address"
        }
      ],
      "name": "getShareTokens",
      "outputs": [
        {
          "name": "no",
          "type": "address"
        },
        {
          "name": "yes",
          "type": "address"
        }
      ],
      "payable": false,
      "stateMutability": "view",
      "type": "function",
      "signature": "0x483b24f0"
    },
    {
      "constant": false,
      "inputs": [
        {
          "name": "_market",
          "type": "address"
        },
        {
          "name": "_wrappedAugurShares",
          "type": "address[]"
        },
        {
          "components": [
            {
              "name": "makerAddress",
              "type": "address"
            },
            {
              "name": "takerAddress",
              "type": "address"
            },
            {
              "name": "feeRecipientAddress",
              "type": "address"
            },
            {
              "name": "senderAddress",
              "type": "address"
            },
            {
              "name": "makerAssetAmount",
              "type": "uint256"
            },
            {
              "name": "takerAssetAmount",
              "type": "uint256"
            },
            {
              "name": "makerFee",
              "type": "uint256"
            },
            {
              "name": "takerFee",
              "type": "uint256"
            },
            {
              "name": "expirationTimeSeconds",
              "type": "uint256"
            },
            {
              "name": "salt",
              "type": "uint256"
            },
            {
              "name": "makerAssetData",
              "type": "bytes"
            },
            {
              "name": "takerAssetData",
              "type": "bytes"
            }
          ],
          "name": "_orders",
          "type": "tuple[]"
        },
        {
          "name": "_signatures",
          "type": "bytes[]"
        }
      ],
      "name": "fillAugurOrders",
      "outputs": [],
      "payable": true,
      "stateMutability": "payable",
      "type": "function",
      "signature": "0x29630c13"
    }
  ],
  "bytecode": "0x60806040523480156200001157600080fd5b50732da4d465978981bd75bbac4c9f3bda10be0b465c73ffffffffffffffffffffffffffffffffffffffff1663095ea7b373990b2d2af7e87cd015a607c3a95d7622c9bbede17fffffffffffffffffffffffffffffffffffffffffffffffffffffffffffffffff6040518363ffffffff167c0100000000000000000000000000000000000000000000000000000000028152600401620000b392919062000174565b602060405180830381600087803b158015620000ce57600080fd5b505af1158015620000e3573d6000803e3d6000fd5b505050506040513d601f19601f8201168201806040525062000109919081019062000126565b50620001d7565b60006200011e8251620001cb565b905092915050565b6000602082840312156200013957600080fd5b6000620001498482850162000110565b91505092915050565b6200015d81620001a1565b82525050565b6200016e81620001c1565b82525050565b60006040820190506200018b600083018562000152565b6200019a602083018462000163565b9392505050565b600073ffffffffffffffffffffffffffffffffffffffff82169050919050565b6000819050919050565b60008115159050919050565b6111fa80620001e76000396000f30060806040526004361061004c576000357c0100000000000000000000000000000000000000000000000000000000900463ffffffff16806329630c1314610051578063483b24f01461006d575b600080fd5b61006b60048036036100669190810190610bdd565b6100ab565b005b34801561007957600080fd5b50610094600480360361008f9190810190610bb4565b610612565b6040516100a2929190610e8f565b60405180910390f35b60008060008060006101618973ffffffffffffffffffffffffffffffffffffffff1663bad84c9e6040518163ffffffff167c0100000000000000000000000000000000000000000000000000000000028152600401602060405180830381600087803b15801561011a57600080fd5b505af115801561012e573d6000803e3d6000fd5b505050506040513d601f19601f820116820180604052506101529190810190610cda565b3461077490919063ffffffff16565b94507348fcc9d538b9c86ba9d35b3eb0e7f64ee2b4664f73ffffffffffffffffffffffffffffffffffffffff1663abb60c80348b886040518463ffffffff167c01000000000000000000000000000000000000000000000000000000000281526004016101cf929190610ee1565b6020604051808303818588803b1580156101e857600080fd5b505af11580156101fc573d6000803e3d6000fd5b50505050506040513d601f19601f820116820180604052506102219190810190610b8b565b508873ffffffffffffffffffffffffffffffffffffffff166327ce5b8c6040518163ffffffff167c0100000000000000000000000000000000000000000000000000000000028152600401602060405180830381600087803b15801561028657600080fd5b505af115801561029a573d6000803e3d6000fd5b505050506040513d601f19601f820116820180604052506102be9190810190610cda565b93506002841415156102cf57600080fd5b600092505b83831015610607578873ffffffffffffffffffffffffffffffffffffffff166365957bf5846040518263ffffffff167c01000000000000000000000000000000000000000000000000000000000281526004016103319190610f85565b602060405180830381600087803b15801561034b57600080fd5b505af115801561035f573d6000803e3d6000fd5b505050506040513d601f19601f820116820180604052506103839190810190610c88565b9150878381518110151561039357fe5b9060200190602002015190508173ffffffffffffffffffffffffffffffffffffffff1663095ea7b389858151811015156103c957fe5b90602001906020020151876040518363ffffffff167c010000000000000000000000000000000000000000000000000000000002815260040161040d929190610eb8565b602060405180830381600087803b15801561042757600080fd5b505af115801561043b573d6000803e3d6000fd5b505050506040513d601f19601f8201168201806040525061045f9190810190610b8b565b508073ffffffffffffffffffffffffffffffffffffffff1663fd2a81fb8630886040518463ffffffff167c01000000000000000000000000000000000000000000000000000000000281526004016104b993929190610fa0565b602060405180830381600087803b1580156104d357600080fd5b505af11580156104e7573d6000803e3d6000fd5b505050506040513d601f19601f8201168201806040525061050b9190810190610b8b565b5073bce0b5f6eb618c565c3e5f5cd69652bbc279f44e73ffffffffffffffffffffffffffffffffffffffff1663b4be83d5888581518110151561054a57fe5b9060200190602002015187898781518110151561056357fe5b906020019060200201516040518463ffffffff167c01000000000000000000000000000000000000000000000000000000000281526004016105a793929190610f40565b608060405180830381600087803b1580156105c157600080fd5b505af11580156105d5573d6000803e3d6000fd5b505050506040513d601f19601f820116820180604052506105f99190810190610cb1565b5082806001019350506102d4565b505050505050505050565b6000808273ffffffffffffffffffffffffffffffffffffffff166365957bf560006040518263ffffffff167c010000000000000000000000000000000000000000000000000000000002815260040161066b9190610f0a565b602060405180830381600087803b15801561068557600080fd5b505af1158015610699573d6000803e3d6000fd5b505050506040513d601f19601f820116820180604052506106bd9190810190610c88565b8373ffffffffffffffffffffffffffffffffffffffff166365957bf560016040518263ffffffff167c01000000000000000000000000000000000000000000000000000000000281526004016107139190610f25565b602060405180830381600087803b15801561072d57600080fd5b505af1158015610741573d6000803e3d6000fd5b505050506040513d601f19601f820116820180604052506107659190810190610c88565b81915080905091509150915091565b6000818381151561078157fe5b04905092915050565b600061079682356110dd565b905092915050565b600082601f83011215156107b157600080fd5b81356107c46107bf82611004565b610fd7565b915081818352602084019350602081019050838560208402820111156107e957600080fd5b60005b8381101561081957816107ff888261078a565b8452602084019350602083019250506001810190506107ec565b5050505092915050565b600082601f830112151561083657600080fd5b81356108496108448261102c565b610fd7565b9150818183526020840193506020810190508360005b8381101561088f57813586016108758882610923565b84526020840193506020830192505060018101905061085f565b5050505092915050565b600082601f83011215156108ac57600080fd5b81356108bf6108ba82611054565b610fd7565b9150818183526020840193506020810190508360005b8381101561090557813586016108eb8882610a15565b8452602084019350602083019250506001810190506108d5565b5050505092915050565b600061091b82516110fd565b905092915050565b600082601f830112151561093657600080fd5b81356109496109448261107c565b610fd7565b9150808252602083016020830185838301111561096557600080fd5b61097083828461116d565b50505092915050565b60006109858235611109565b905092915050565b6000610999825161111b565b905092915050565b6000608082840312156109b357600080fd5b6109bd6080610fd7565b905060006109cd84828501610b77565b60008301525060206109e184828501610b77565b60208301525060406109f584828501610b77565b6040830152506060610a0984828501610b77565b60608301525092915050565b60006101808284031215610a2857600080fd5b610a33610180610fd7565b90506000610a438482850161078a565b6000830152506020610a578482850161078a565b6020830152506040610a6b8482850161078a565b6040830152506060610a7f8482850161078a565b6060830152506080610a9384828501610b63565b60808301525060a0610aa784828501610b63565b60a08301525060c0610abb84828501610b63565b60c08301525060e0610acf84828501610b63565b60e083015250610100610ae484828501610b63565b61010083015250610120610afa84828501610b63565b6101208301525061014082013567ffffffffffffffff811115610b1c57600080fd5b610b2884828501610923565b6101408301525061016082013567ffffffffffffffff811115610b4a57600080fd5b610b5684828501610923565b6101608301525092915050565b6000610b6f823561112d565b905092915050565b6000610b83825161112d565b905092915050565b600060208284031215610b9d57600080fd5b6000610bab8482850161090f565b91505092915050565b600060208284031215610bc657600080fd5b6000610bd484828501610979565b91505092915050565b60008060008060808587031215610bf357600080fd5b6000610c0187828801610979565b945050602085013567ffffffffffffffff811115610c1e57600080fd5b610c2a8782880161079e565b935050604085013567ffffffffffffffff811115610c4757600080fd5b610c5387828801610899565b925050606085013567ffffffffffffffff811115610c7057600080fd5b610c7c87828801610823565b91505092959194509250565b600060208284031215610c9a57600080fd5b6000610ca88482850161098d565b91505092915050565b600060808284031215610cc357600080fd5b6000610cd1848285016109a1565b91505092915050565b600060208284031215610cec57600080fd5b6000610cfa84828501610b77565b91505092915050565b610d0c816110b3565b82525050565b6000610d1d826110a8565b808452610d3181602086016020860161117c565b610d3a816111af565b602085010191505092915050565b610d5181611137565b82525050565b610d6081611149565b82525050565b610d6f8161115b565b82525050565b600061018083016000830151610d8e6000860182610d03565b506020830151610da16020860182610d03565b506040830151610db46040860182610d03565b506060830151610dc76060860182610d03565b506080830151610dda6080860182610e80565b5060a0830151610ded60a0860182610e80565b5060c0830151610e0060c0860182610e80565b5060e0830151610e1360e0860182610e80565b50610100830151610e28610100860182610e80565b50610120830151610e3d610120860182610e80565b50610140830151848203610140860152610e578282610d12565b915050610160830151848203610160860152610e738282610d12565b9150508091505092915050565b610e89816110d3565b82525050565b6000604082019050610ea46000830185610d03565b610eb16020830184610d03565b9392505050565b6000604082019050610ecd6000830185610d03565b610eda6020830184610e80565b9392505050565b6000604082019050610ef66000830185610d48565b610f036020830184610e80565b9392505050565b6000602082019050610f1f6000830184610d57565b92915050565b6000602082019050610f3a6000830184610d66565b92915050565b60006060820190508181036000830152610f5a8186610d75565b9050610f696020830185610e80565b8181036040830152610f7b8184610d12565b9050949350505050565b6000602082019050610f9a6000830184610e80565b92915050565b6000606082019050610fb56000830186610e80565b610fc26020830185610d03565b610fcf6040830184610e80565b949350505050565b6000604051905081810181811067ffffffffffffffff82111715610ffa57600080fd5b8060405250919050565b600067ffffffffffffffff82111561101b57600080fd5b602082029050602081019050919050565b600067ffffffffffffffff82111561104357600080fd5b602082029050602081019050919050565b600067ffffffffffffffff82111561106b57600080fd5b602082029050602081019050919050565b600067ffffffffffffffff82111561109357600080fd5b601f19601f8301169050602081019050919050565b600081519050919050565b600073ffffffffffffffffffffffffffffffffffffffff82169050919050565b6000819050919050565b600073ffffffffffffffffffffffffffffffffffffffff82169050919050565b60008115159050919050565b6000611114826110b3565b9050919050565b6000611126826110b3565b9050919050565b6000819050919050565b6000611142826110b3565b9050919050565b6000611154826110d3565b9050919050565b6000611166826110d3565b9050919050565b82818337600083830152505050565b60005b8381101561119a57808201518184015260208101905061117f565b838111156111a9576000848401525b50505050565b6000601f19601f83011690509190505600a265627a7a7230582080d2dec3c43c934555de904800e5e7fe46da13d35d991545cf1beee94b925bc86c6578706572696d656e74616cf50037",
  "source": "pragma solidity >=0.4.22;\npragma experimental ABIEncoderV2;\n\nimport \"./../libraries/augur/source/contracts/trading/CompleteSets.sol\";\nimport \"./../libraries/augur/source/contracts/trading/ICash.sol\";\nimport \"./../libraries/augur/source/contracts/reporting/IMarket.sol\";\n\nimport \"./../libraries/openzeppelin-solidity/SafeMathLib.sol\";\n\nimport \"./../libraries/0x/contracts/exchange/contracts/src/interfaces/IExchange.sol\";\nimport \"@0x/contracts-exchange-libs/contracts/src/LibOrder.sol\";\nimport './WrappedAugurShare.sol';\n\ncontract Broker {\n\tusing SafeMathLib for uint256;\n\n\tCompleteSets constant private completeSets = CompleteSets(0x48FCc9d538B9C86bA9D35b3eB0e7f64EE2B4664f); // rinkeby\n\taddress constant private cash = 0x2Da4d465978981BD75BbaC4C9f3bdA10bE0B465c;\n\taddress constant private augur = 0x990B2D2aF7e87cd015A607c3A95d7622c9bBeDe1;\n\tIExchange constant private exchange = IExchange(0xbCE0B5F6eb618c565C3E5f5cd69652bbC279f44E);\n\n\tconstructor(\n\t) \n\tpublic \n\t{\n\t\tICash(cash).approve(augur, uint256(-1));\n\t}\n\n\tfunction getShareTokens(IMarket _market) public view returns(address no , address yes){\n\t\treturn (_market.getShareToken(0), _market.getShareToken(1));\n\t}\n\n\tfunction fillAugurOrders (\n\t\tIMarket _market,\n\t\taddress[] _wrappedAugurShares,\n\t\tLibOrder.Order[] memory _orders,\n\t\tbytes[] _signatures\n\t)\n\tpublic \n\tpayable\n\t{\n\t\tuint256 amount = msg.value.div(_market.getNumTicks());\n\t\tcompleteSets.publicBuyCompleteSets.value(msg.value)(_market, amount);\n\t\t\n\t\tuint256 numberOfOutcomes = _market.getNumberOfOutcomes();\n\t\trequire(numberOfOutcomes == 2);\n\n\t\tfor (uint i = 0; i < numberOfOutcomes; i++) {\n\t\t \taddress outcome = _market.getShareToken(i);\n\t\t\tWrappedAugurShare wrappedShare = WrappedAugurShare(_wrappedAugurShares[i]);\n\t\t\tERC20(outcome).approve(_wrappedAugurShares[i], amount);\n\t\t\twrappedShare.depositAndApprove(amount, address(this), amount);\n\t\t\texchange.fillOrder(_orders[i], amount, _signatures[i]);\n\t\t}\n\t\t\n\t\t// TODO fill orders with WAS \n\t\t// TODO Unwrap returned WETH\n\t\t// TODO return Weth to msg.sender\n\t}\n}",
  "sourcePath": "/Users/jasperdegooijer/Documents/flux/broker-eth/contracts/Broker.sol",
  "compiler": {
    "name": "solc",
    "version": "0.4.22+commit.4cb486ee.Emscripten.clang"
  },
  "schemaVersion": "3.0.1",
  "updatedAt": "2019-03-15T14:55:37.729Z",
  "devdoc": {
    "methods": {}
  },
  "userdoc": {
    "methods": {}
  }
}